:10000000FBC000002AC1000028C1000026C100007A
:1000100024C1000022C1000020C100001EC1000058
:100020001CC100001AC1000018C1000016C1000068
:1000300014C1000012C1000010C100000EC1000078
:100040000CC100000AC1000008C1000006C1000088
:1000500004C1000002C1000000C100000C9455085A
:10006000FCC000000C9427090C94FE08F6C00000A8
:10007000F4C00000F2C00000F0C00000EEC00000BC
:10008000ECC00000EAC00000E8C00000E6C00000CC
:100090000C94C8080C949F08E0C00000DEC000006B
:1000A000DCC00000DAC00000D8C00000D6C00000EC
:1000B000D4C00000D2C00000D0C00000CEC00000FC
:1000C000CCC00000CAC00000C8C00000C6C000000C
:1000D000C4C00000C2C00000C0C00000BEC000001C
:1000E000BCC000000A0B0C0D0E0F00000A0B020929
:1000F0000C0D0E08070304010000000000000000C2
:1001000000000000000000000000000000000000EF
:1001100000000000000012111000000000000000AC
:1001200000000000000000000000000000000000CF
:1001300000002200250028002B002E003100340092
:1001400002010000050108010B010000210024004C
:1001500027002A002D0030003300010100000401B7
:1001600007010A0105050505070508080808020238
:1001700002020A0A08080404040401010101010141
:1001800001010303030303030303040707070C0C24
:100190000C0C0C0C0C0C02020202060606060606EB
:1001A00006060B0B0B0B0B0B0B0B01021020200890
:1001B00008102040102040800201020108040201C2
:1001C0000102040810204080804020100804020131
:1001D000800402018040201008040201080402018A
:1001E0000102040810204080010204081020408011
:1001F0000001020304055D0911241FBECFEFD1E207
:10020000DEBFCDBF00E00CBF23E1A8EAB4E001C02F
:100210001D92AC32B207E1F714E0A0E0B2E0EEE9E3
:10022000F6E200E00BBF02C007900D92A83AB107BA
:10023000D9F710E0CCEFD0E000E006C0219701092B
:10024000802FFE010E943C13CB3FD10780E00807BE
:10025000A9F70E94D7090C944D13D2CEFC01A089B6
:10026000B18982E08C93A485B5851C92A685B7855B
:100270008FEC8C93108EA489B58986E08C93A2892B
:10028000B3898C9180618C93A289B3898C918860A9
:100290008C93A289B3898C9180688C930288F389AE
:1002A000E02D80818F7D8083089590E0FC01E655EC
:1002B000FE4F24918C599E4FFC018491882399F024
:1002C00090E0880F991FFC01E65BFE4FA591B49169
:1002D000FC01E05DFE4F859194918FB7F894EC910D
:1002E000E22BEC938FBF0895282F30E0F901E651FF
:1002F000FF4F9491F901E655FE4F44912C593E4F22
:10030000F9012491222309F435C0992311F1915068
:100310009231F8F4E92FF0E08827EE56FE4F8F4F28
:100320000C943C13C301C701A401BB01BF01A90187
:10033000CA01D001D401DA01DE01E201E801EC01D9
:10034000A901F001F601FA01809180008F77809376
:100350008000E22FF0E0EE0FFF1FE05DFE4FA59161
:10036000B4918FB7F894EC91611148C040954E2339
:100370004C938FBF0895809180008F7DE8CF80914E
:100380008000877FE4CF84B58F7784BDE2CF84B5CA
:100390008F7DFBCF8091B0008F778093B000D9CF55
:1003A0008091B0008F7DF9CF809190008F778093FE
:1003B0009000CFCF809190008F7DF9CF80919000F9
:1003C000877FF5CF8091A0008F778093A000C1CF69
:1003D0008091A0008F7DF9CF8091A000877FF5CF1D
:1003E000809120018F7780932001B3CF80912001ED
:1003F0008F7DF9CF80912001877FF5CF4E2BB8CF2D
:10040000682F8091101370DF809128139091291329
:100410008230910538F0880F991F880F991F059732
:100420000197F1F7089581E0EBCF3FB7F894809101
:10043000250C9091260CA091270CB091280C26B584
:10044000A89B05C02F3F19F00196A11DB11D3FBF0C
:10045000BA2FA92F982F8827BC01CD01620F711DDB
:10046000811D911D42E0660F771F881F991F4A95D5
:10047000D1F708952FB7F8946091210C7091220C58
:100480008091230C9091240C2FBF0895AF92BF92BE
:10049000CF92DF92EF92FF920F931F93CF93DF9350
:1004A0006C017B018B01040F151FEB015E01AE187F
:1004B000BF08C017D10759F06991D601ED91FC91A1
:1004C0000190F081E02DC6011995892B79F7C501BE
:1004D000DF91CF911F910F91FF90EF90DF90CF9020
:1004E000BF90AF900895FC01538D448D252F30E0CF
:1004F000842F90E0821B930B541710F0CF96089531
:1005000001970895FC01918D828D981761F0A28D5D
:10051000AE0FBF2FB11D5D968C91928D9F5F9F7323
:10052000928F90E008958FEF9FEF0895FC01918DD9
:10053000828D981731F0828DE80FF11D858D90E046
:1005400008958FEF9FEF0895FC01918D228D892FE3
:1005500090E0805C9F4F821B91098F7399270895CB
:1005600081ED91E1F1DF21E0892B09F420E0822F78
:1005700008958EE692E1E8DF21E0892B09F420E07E
:10058000822F0895FC01A48DA80FB92FB11DA35A85
:10059000BF4F2C91848D90E001968F739927848FA3
:1005A000A689B7892C93A089B1898C9183708064C6
:1005B0008C93938D848D981306C00288F389E02D67
:1005C00080818F7D80830895EF92FF920F931F9318
:1005D000CF93DF93EC0181E0888F9B8D8C8D9813F6
:1005E0001AC0E889F989808185FF15C09FB7F89402
:1005F000EE89FF896083E889F9898081837080644E
:1006000080839FBF81E090E0DF91CF911F910F9198
:10061000FF90EF900895F62E0B8D10E00F5F1F4FA7
:100620000F731127E02E8C8D8E110BC00FB607FCB7
:10063000FACFE889F989808185FFF5CFCE01A2DF65
:10064000F2CFEB8DEC0FFD2FF11DE35AFF4FF0823F
:100650009FB7F8940B8FEA89FB8980818062D0CFA5
:10066000CF93DF93EC01888D8823B1F0AA89BB89F1
:10067000E889F9898C9185FD03C0808186FD0CC0D5
:100680000FB607FCF7CF8C9185FFF2CF808185FFF5
:10069000EDCFCE0177DFEACFDF91CF91089580E0F3
:1006A00090E0892B21F065DF81110E94000080E03D
:1006B00090E0892B21F054DF81110E94000080E03E
:1006C00090E0892B49F080E090E0892B29F00E948E
:1006D000000081110E94000080E090E0892B49F029
:1006E00080E090E0892B29F00E94000081110C9499
:1006F000000008958EBD00000DB407FEFDCF8EB53D
:100700000895FC014FEF5FEF615050F19081292F68
:10071000220F2A7A96959575292B922F990F990F6A
:100720009C7C269526952373922B929591939527E1
:10073000892F82958F709827292F30E0A92FB42F09
:10074000AD01C901982F88279295907F4827592796
:1007500085E0220F331F8A95E1F742275327D4CF34
:100760009A01220F331F2A7A3A7ACA01B0E0A0E038
:10077000B695A7959795879585759575822B932B3B
:10078000BC01660F771F660F771F6C7C7C7CB0E026
:10079000A0E0E2E0B695A79597958795EA95D1F701
:1007A00083739373682B792BCB01F4E0880F991F27
:1007B000FA95E1F7807F907FAB0170E060E0A4E004
:1007C0007695679557954795AA95D1F74F705F70C5
:1007D000842B952B98278927982708958F929F928D
:1007E000BF92CF92DF92EF92FF920F931F93CF931E
:1007F000DF93CDB7DEB7C55DD1400FB6F894DEBF4D
:100800000FBECDBF7C018B018091E80ED7018C9388
:100810008091E90EFB0180838091EA0E8093E60EC1
:10082000E8EEFEE0CC24C394D12C81912FEFC21AC4
:10083000D20A803C21F03CEEC316D104B1F7E7EEBA
:10084000FEE070E060E0A60141505109CB01019645
:1008500031968417950750F4A1E0B0E0AC0FBD1FAE
:10086000A60FB11D20812C93BC01F0CFCE010196C3
:1008700048DF2091E70E203C09F0C0C0892B09F029
:10088000BDC0C60103972091E80EF7012083209197
:10089000E90ED8012C930BEE1EE0AE0143515F4FE1
:1008A000FA0134969F01B801675E7E4068177907A8
:1008B00038F4D8016D918D01D9016D939D01F3CF6D
:1008C000DF019C01BD01641B750B6817790748F4B3
:1008D0006D916B3DB9F76C916C3DA1F721503109D9
:1008E000F1CFDF0110E0BD01641B750B68177907BC
:1008F00040F46D916B3DB9F76C916D3DA1F71F5FB1
:10090000F2CF4A0164E0E62EF12C70ECC72E05E030
:10091000041BE816F90620F5BFEFEB1AFB0AD40119
:1009200014966C9114976B3DB9F415966C911597CC
:100930006C3D91F41496CC92D02ED80C6D2D70E0B5
:100940006817790748F4640F751FDB011196BC9096
:100950001197BC92D394F2CFBFEF8B1A9B0AD9CFD9
:10096000BF01A4E0FA2EFE1ADB01A41BB50BA817E9
:10097000B907B8F4DB010D91BD010B3DA9F70C914E
:100980000D3D91F70F2D0A0FA02FB0E0A817B90762
:1009900058F7A40FB51F1196EC901197EC920F5FCA
:1009A000F3CF24503109211B31093093000E2093DD
:1009B000FF0DA1E0BEE0CD0181509E40821793075C
:1009C00018F481918D93F7CF1092FD0D1092FE0DCA
:1009D00081E08093FC0DCB52DE4F0FB6F894DEBF62
:1009E0000FBECDBFDF91CF911F910F91FF90EF9080
:1009F000DF90CF90BF909F908F90089581E080937B
:100A0000FD0DE4CF8F929F92BF92CF92DF92EF9233
:100A1000FF920F931F93CF93DF93CDB7DEB7C55DE2
:100A2000D1400FB6F894DEBF0FBECDBF8B01209131
:100A3000120DDB012C932091130DFC012083E1E1C9
:100A4000FDE0EE24E394F12C81912FEFE21AF20AFB
:100A5000803C21F03BEEE316F104B1F7E0E1FDE06C
:100A600070E060E0A70141505109CB010196319639
:100A70008417950750F4A1E0B0E0AC0FBD1FA60F9E
:100A8000B11D20812C93BC01F0CFCE01019639DE3F
:100A90002091100D203C09F0A2C0892B09F09FC0C5
:100AA000C70103972091120DF801208304E11DE096
:100AB000AE0143515F4FFA0134969F01B801605176
:100AC0007D406817790738F4D8016D918D01D901FF
:100AD0006D939D01F3CFDF019C01BD01641B750B7C
:100AE0006817790748F46D916B3DB9F76C916C3DCF
:100AF000A1F721503109F1CFDF0110E0BD01641BE6
:100B0000750B6817790740F46D916B3DB9F76C91DF
:100B10006D3DA1F71F5FF2CF4A0164E0E62EF12C94
:100B200070ECC72E05E0041BE816F90620F5BFEFB0
:100B3000EB1AFB0AD40114966C9114976B3DB9F42F
:100B400015966C9115976C3D91F41496CC92D02E1D
:100B5000D80C6D2D70E06817790748F4640F751F85
:100B6000DB011196BC901197BC92D394F2CFBFEFEA
:100B70008B1A9B0AD9CFBF01A4E0FA2EFE1ADB0123
:100B8000A41BB50BA817B907B8F4DB010D91BD0183
:100B90000B3DA9F70C910D3D91F70F2D0A0FA02FDA
:100BA000B0E0A817B90758F7A40FB51F1196EC903D
:100BB0001197EC920F5FF3CF24503109211B3109BB
:100BC00030932A0C2093290CABE2BCE0CD018B5270
:100BD0009C408217930718F481918D93F7CFCB52E5
:100BE000DE4F0FB6F894DEBF0FBECDBFDF91CF91C1
:100BF0001F910F91FF90EF90DF90CF90BF909F904B
:100C00008F900895FC01DB016D917C91680F791F35
:100C10004FEF5FEF6E177F0741F19191292F220F60
:100C20002A7A96959575292B922F990F990F9C7C6E
:100C3000269526952373922B92959527892F829539
:100C40008F708927282F30E0942FA901542F442733
:100C50005295507F84279527A90125E0440F551F01
:100C60002A95E1F748275927D5CF9A01220F331F3C
:100C70002A7A3A7ACA01B0E0A0E0B695A79597958E
:100C8000879585759575822B932BBC01660F771F11
:100C9000660F771F6C7C7C7CB0E0A0E0E2E0B6954C
:100CA000A79597958795EA95D1F783739373682BEA
:100CB000792BCB01F4E0880F991FFA95E1F7807F3B
:100CC000907FAB0170E060E0A4E076956795579562
:100CD0004795AA95D1F74F705F70842B952B982775
:100CE000892798270895BF92CF92DF92EF92FF92C3
:100CF0000F931F93CF93DF93CDB7DEB7C250D14090
:100D00000FB6F894DEBF0FBECDBF1092D01143EDE9
:100D10005FE0FE0131969F016F0190E1433D59076D
:100D200039F0DA019D91AD01D9019D939D01F5CF77
:100D300099819E3709F06EC021E030E0CF5FDE4F31
:100D400039832883C150D140A2ECB1E1319691E1C1
:100D5000A03DB907D9F498899093C11120E130E002
:100D6000CF5FDE4F39832883C150D140DE015196D9
:100D7000E5EDF0E100E110E090E04096081719077A
:100D800048F42D9121930F5F1F4FF8CF90819D93D1
:100D9000DDCF87017801AFEFEA1AFA0ABDEFEB1653
:100DA000F104B8F3CF5FDE4FF982E882C150D14041
:100DB000BB24B394B092D4101092D310BE016F5FD5
:100DC0007E4FC6011FDFF601EE0DFF1D20812913A6
:100DD00010C00E5F1F4FCF5FDE4F19830883C150D5
:100DE000D1400C0D1D1DF8019081981302C0B092E6
:100DF000D011CE5FDE4F0FB6F894DEBF0FBECDBF71
:100E0000DF91CF911F910F91FF90EF90DF90CF90E6
:100E1000BF9008951092D310ECCFFC0190819730D1
:100E200018F49F5F9083089510820895FB0101904C
:100E30000020E9F73197AF01461B570B27CB4F92A4
:100E40005F926F927F92EF92FF920F931F93CF93D7
:100E5000DF93CDB7DEB7A1970FB6F894DEBF0FBE14
:100E6000CDBF7C0170E090E080E019A28E010F5DA3
:100E70001F4F2A01550F66087708A30192010E94AF
:100E80001A13E62FCA01B901EA3004F5E05DD80172
:100E9000EE938D01232B242B252B79F790E080E016
:100EA000109719F0C701BD01C1DFA1960FB6F894E4
:100EB000DEBF0FBECDBFDF91CF911F910F91FF908D
:100EC000EF907F906F905F904F900895E95CDFCF37
:100ED000CF93DF93BC0181ED91E1A8DFEC016EE3DC
:100EE00072E081ED91E1A2DF8C0F9D1FDF91CF9128
:100EF00008959CCF0F931F93009112131091131319
:100F0000209114133091151340E052E16AE770E02C
:100F100080E0041715072607370740F47695679594
:100F2000579547958F5F8630A1F787E0982F906A95
:100F30009695809581709CBD8DBD80E01F910F912D
:100F40005FCACF93C82FD6DF8C2F8062D3DB80930C
:100F50001613CF9168CACF93C82FCCDF8C2FCADB72
:100F6000809316138FEFC6DBC82F5DDA8C2FCF91DD
:100F70000895FF920F931F93CF93DF93C82FF62E00
:100F8000072F142FB7DF8C2F8062B4DB80931613EA
:100F9000CF2DD02F115018F08991ACDBFBCFDF9112
:100FA000CF911F910F91FF903ECAA4DF80E5A2DB95
:100FB0008093161383E79EDB36CA0F931F93CF935C
:100FC000DF938C0180912213C0E0D1E0811106C033
:100FD000C0911713DC2FC111D1E0CD1B8BDF81E64F
:100FE00089DB80931613DD2321F08FEF83DBF8017B
:100FF0008083C15018F08FEF7DDBFBCFDF91CF9165
:101000001F910F9110CACF93DF93D82FC62F72DF95
:101010008D2F80626FDB809316138C2F6BDBDF913B
:10102000CF9101CA60911D1361FD09C06260609398
:101030001D1380E0E8DF8BE19EE40197F1F708954E
:10104000F1DF60911D13616060931D1380E0DBDFB1
:1010500060E787E0D8DF80910E1390910F13209105
:101060001013309111138217930711F061E03CD9EE
:1010700080911F13882331F04091211368E173E1BF
:101080008AE077CF82E067DFE0EFF1E0E49121E0F2
:1010900030E001C0220FEA95EAF72095622F68231D
:1010A00082E0B1DF10921F1308951F920F920FB6C6
:1010B0000F9211242F933F938F939F93AF93BF93DE
:1010C0008091210C9091220CA091230CB091240CC2
:1010D0003091200C23E0230F2D3758F50196A11DE8
:1010E000B11D2093200C8093210C9093220CA0938F
:1010F000230CB093240C8091250C9091260CA09188
:10110000270CB091280C0196A11DB11D8093250CD0
:101110009093260CA093270CB093280CBF91AF910D
:101120009F918F913F912F910F900FBE0F901F9025
:10113000189526E8230F0296A11DB11DD2CF1F924C
:101140000F920FB60F9211240BB60F922F933F936D
:101150004F935F936F937F938F939F93AF93BF93BF
:10116000EF93FF9381ED91E10DDAFF91EF91BF9144
:10117000AF919F918F917F916F915F914F913F912F
:101180002F910F900BBE0F900FBE0F901F901895D0
:101190001F920F920FB60F9211240BB60F922F933E
:1011A0008F939F93EF93FF93E091E111F091E21100
:1011B0008081E091E711F091E81182FD1DC09081DE
:1011C0008091EA118F5F8F732091EB11821741F0AC
:1011D000E091EA11F0E0EF52FE4E958F8093EA1114
:1011E000FF91EF919F918F912F910F900BBE0F90D8
:1011F0000FBE0F901F9018958081F2CF1F920F9213
:101200000FB60F9211240BB60F922F933F934F936B
:101210005F936F937F938F939F93AF93BF93EF935E
:10122000FF938EE692E1AED9FF91EF91BF91AF911E
:101230009F918F917F916F915F914F913F912F91EE
:101240000F900BBE0F900FBE0F901F9018951F921E
:101250000F920FB60F9211240BB60F922F938F930C
:101260009F93EF93FF93E0917E12F0917F12808124
:10127000E0918412F091851282FD1DC090818091D1
:1012800087128F5F8F7320918812821741F0E0914F
:101290008712F0E0E259FD4E958F80938712FF91FF
:1012A000EF919F918F912F910F900BBE0F900FBEDA
:1012B0000F901F9018958081F2CFE1EDF1E113823C
:1012C000128248EE53E060E070E044835583668309
:1012D000778380E392E0918380832DEC30E0358743
:1012E00024872CEC30E03787268728EC30E0318BE0
:1012F000208B29EC30E0338B228B2AEC30E0358BCD
:10130000248B2EEC30E0378B268B118E128E138EB1
:10131000148EEEE6F2E113821282448355836683D3
:1013200077839183808385EC90E09587848784EC34
:1013300090E09787868780EC90E0918B808B81ECA2
:1013400090E0938B828B82EC90E0958B848B86EC83
:1013500090E0978B868B118E128E138E148EECE09C
:10136000F3E189E090E09383828388E090E09583C5
:10137000848380E896E9A8E9B0E086839783A08714
:10138000B18780E28387128A138A85E0858B81E0AA
:10139000868B85E090E0A0E0B0E0848F958FA68FEB
:1013A000B78F8BE093E19183808314860895CF9368
:1013B000DF93CDB7DEB7C55FD1090FB6F894DEBFB6
:1013C0000FBECDBF789484B5826084BD84B5816042
:1013D00084BD85B5826085BD85B5816085BD809100
:1013E0006E00816080936E00109281008091810078
:1013F0008260809381008091810081608093810070
:10140000809180008160809380008091B100846031
:101410008093B1008091B00081608093B000809192
:10142000910082608093910080919100816080930F
:101430009100809190008160809390008091A10044
:1014400082608093A1008091A10081608093A100BF
:101450008091A00081608093A00080912101826032
:1014600080932101809121018160809321018091ED
:10147000200181608093200180917A0084608093B4
:101480007A0080917A00826080937A0080917A005D
:10149000816080937A0080917A00806880937A00DE
:1014A0001092C1008EE692E10E942E0181ED91E141
:1014B0000E942E01FFB6F8948091A804811124C0E7
:1014C000E9E9F1E08491EFEDF1E09491E82FF0E0AB
:1014D000EE0FFF1FE65BFE4FA591B491EC91E9235F
:1014E00021F461E085E30E94740185E30E945501C7
:1014F0008CB580618CBD8CB580648CBD84E30E940A
:10150000550183E30E9455018091A8048F5F809369
:10151000A804FFBE80910E1390910F138F3F980780
:1015200009F49CC020911013309111132F3F320702
:1015300009F494C08217930731F00E9455018091FD
:1015400010130E94550180910E1390910F1320915A
:101550001013309111138217930719F060E00E9465
:10156000740181E00E9400020E9415024B015C019F
:1015700075E0C72ED12CE12CF12C0E9415026819C0
:1015800079098A099B09683E734081059105A8F392
:1015900081E0C81AD108E108F10898EE890E93E0BD
:1015A000991EA11CB11CC114D104E104F10429F756
:1015B0006FE584E028DD85E590E0A0E0B0E0809371
:1015C000241390932513A0932613B093271367E059
:1015D00086E019DD8DE1BFDCF82EE7DC8DE1BBDCB8
:1015E00091E0F81290E090931E13882331F0F812E6
:1015F00001C0DBDC60E08DE106DD1092201360E0CD
:101600008CE101DD109222136FE381E0FCDC63E0EA
:1016100082E0F9DC80E28093171361E1F62E60919D
:1016200017138F2DF0DCF394B7E1FB12F8CF63E0D2
:1016300083E0E9DC85E0809321136CE4E4DC60E77F
:1016400087E0E1DC82EE7DDC81EE7BDC6CE080E03B
:10165000DADC80E080DC80931D13E4DC4091211310
:1016600066E272E08AE085DC4091211366E272E076
:1016700080E17FDC4091211350E066E272E088E176
:1016800093E10E944413FF24F394F0921F13E4EEBD
:10169000F0E084914091211366E272E06ADC82E01E
:1016A0005ADCE0EFF1E0E49161E070E001C0660F28
:1016B000EA95EAF7682B82E0A6DCC2DCF092171309
:1016C00051E1F52E609117138F2D9DDCF394E7E126
:1016D000FE12F8CF6E01FFE0CF0ED11CF0901F0C70
:1016E000F1103CC080911E0C8130C1F5BE016E50DE
:1016F0007F4FCE018F509F4F85D9CE50DF4F38801E
:10170000C25FD040CF50DF4F6881C15FD0401092A0
:10171000360B2091290C30912A0C8F2D90E08217E6
:10172000930750F4FC01E75CF44F855D934FDC01B7
:101730008C918083F394F1CF10921E0C3093380B70
:101740002093370B6093350B40E150E081ED91E140
:1017500076DB81E08093360B80931F0C80911F0C09
:10176000813069F58091340B811147C0E090370BCF
:10177000F090380BB090AE04B110B5C0A090360B0D
:10178000B1E0AB1264C0B090340BB11060C081E422
:1017900092E09EDB81ED91E10E943003A092AE04C5
:1017A0008B2D90E08E159F0578F4FC01E35BF54FDF
:1017B000875C944FDC018C918083B394F1CF8111CD
:1017C0001CC08091330BD0CFF0926709E09266097C
:1017D0008091350B8093320B81E08093340B109213
:1017E000360B0E943A026093AA047093AB04809374
:1017F000AC049093AD0445E0242E8091340B8130ED
:1018000009F0FAC1A0906609B09067098091320B87
:1018100090EC90937A0830927B0820927C08809319
:101820007D082DE43AE0CC50DF4F39832883C45F34
:10183000D040F90180E09F012D543A402A153B0524
:1018400008F029C19191903CB1F78F5FF4CF80915E
:10185000FC0D813091F6F090330BF110CECFC051DA
:10186000DF4F8881C05FD040853011F08330C1F5F3
:1018700063E572E081ED91E13CDB81ED91E10E9455
:10188000300382E08093AE0481E08093330B1092AA
:10189000FC0D80930F02C051DF4F5880C05FD040D5
:1018A000C151DF4FB881CF5ED040CD50DF4FB883FC
:1018B000C35FD0400091E60E2091FF0D3091000EE5
:1018C0008F2D90E08217930708F097CFFC01E8591D
:1018D000F64F8F5F914FDC018C918083F394F0CFB2
:1018E0001092FC0D8ACFB1E0BB128EC08091FC0D2E
:1018F000813009F05FC0C051DF4F8881C05FD040A8
:10190000853071F78091E60E823081F485E692E0B1
:10191000DFDA81ED91E10E9430031092AE04109263
:10192000FC0D10921F0C1092A90467CF982F9F7E78
:10193000933019F0833209F060CF8DE792E0C8DA76
:1019400084E992E0C5DA81ED91E10E94300320E064
:10195000822F90E08E159F0550F4FC01E35BF54F5C
:10196000875C944FDC018C9180832F5FF1CFF092E4
:101970006709E092660981E08093340B1092FC0DB8
:1019800080931F0C8091A9048F5F8093A9048330FA
:1019900009F038CF8BEA92E09BDA81ED91E10E9469
:1019A00030031092AE041092A9041092340B1092DE
:1019B0001F0C23CF0E943A028090AA049090AB049F
:1019C000A090AC04B090AD04681979098A099B090C
:1019D000693B7B408105910508F40FCF8FEB92E0C6
:1019E00077DA1092FC0D10921F0C1092AE04109238
:1019F000790810921E0C1092AA041092AB04109257
:101A0000AC041092AD04F9CEE2E0BE12F6CEF09036
:101A1000FD0D88EC92E05CDAF1101DC08AED92E0D9
:101A200057DA81ED91E10E943003C051DF4F2880E9
:101A3000C05FD0401092670910926609C151DF4F14
:101A40003880CF5ED040B092320B81E08093340B6F
:101A50001092AE04D2CEF1E0FF12CFCE8AEE92E029
:101A600037DA81ED91E10E943003C051DF4F2880C9
:101A7000C05FD0401092670910926609C151DF4FD4
:101A80003880CF5ED04083E08093320BF092340BED
:101A90001092330BDDCFEDE4FAE0F12C9F012D54D1
:101AA0003A402A153B0528F491919B3DB9F7F394F0
:101AB000F5CF8A0D9B2D911DAF0CB11CEDE4FAE022
:101AC00041E050E0782E2BED922E3CEDE32E20816C
:101AD000203CE1F59082882E282D30E02417350730
:101AE00058F0B901645B754FDB016C91235B354F96
:101AF000D9016C938A94F0CFE1824F5F5F4F3196AA
:101B00009F012D543A408217930708F77F0C34E069
:101B1000370DEEE7F8E0E32EF12CBAE7AB2EB8E094
:101B2000BB2ECF018A5798408E159F0528F1ABE751
:101B30008A2EA8E09A2EFE013196D40121E0CF0131
:101B4000231748F54D9141932F5FFACF2B3DA9F60E
:101B50008A2C282D30E02417350758F0B901645B32
:101B6000754FDB016C91235B354FD9016C938A94DF
:101B7000F0CFBDEDB183C1CFCC50DF4FA881B9818B
:101B8000C45FD0408D91CC50DF4FB983A883C45F30
:101B9000D0408193C2CF63E0670D0E948103F701BB
:101BA000E658F74F808325E0270D30E0F901E6582D
:101BB000F74F90832558374F80ECF9018083FF243D
:101BC000F394D4018D914D01F394803C19F0BCEE57
:101BD000FB12F7CFE12CF50161915F0140E150E08C
:101BE00081ED91E12CD981ED91E10E943003E394E4
:101BF000FE10F1CF1092340B8091FE0D81114BC07D
:101C000081ED91E10E94A402181619060CF043C060
:101C1000E7EEEE2EEEE0FE2EF3EDAF2EFFE0BF2E50
:101C20000E943A026093D9117093DA118093DB110C
:101C30009093DC1181ED91E10E94820297FFF2C442
:101C40000E943A022091D9113091DA114091DB11B2
:101C50005091DC11621B730B840B950B2091D511F5
:101C60003091D6114091D7115091D8116217730756
:101C700084079507F8F281ED91E10E94820297FFB7
:101C8000FACF81E08093FE0D88EF92E021D981EDBB
:101C900091E10E9430038091FE0D813061F48091CA
:101CA000FC0D811108C0BE0161517F4FCE018051F2
:101CB0009F4F0E94EE0380910F02813009F0F2C025
:101CC0007090330BF1E07F12EDC0609079086110E5
:101CD000E9C06AE073E081ED91E10BD9E090FF0D7E
:101CE000F090000E63E273E081ED91E102D980ECA7
:101CF00080938D0750928E07CD50DF4F2881C35FB0
:101D0000D04020938F070093900788E699E0CC504D
:101D1000DF4F99838883C45FD040FC0180E09F013E
:101D2000285639402E153F0528F49191903CB9F77B
:101D30008F5FF5CFE8E6F9E0B12C9F0128563940D6
:101D40002E153F0528F491919B3DB9F7B394F5CF3B
:101D50008E0D9F2D911DEB0CF11CE8E6F9E041E0A2
:101D600050E0482E6BED862E7CED972E2081203C96
:101D7000E1F58082A82E2A2D30E02417350758F08F
:101D8000B9016959764FDB016C912859364FD90159
:101D90006C93AA94F0CF91824F5F5F4F31969F0171
:101DA000285639408217930708F74B0C34E0340D5E
:101DB000E1E9F7E0E32EF12C5DE8A52E57E0B52E22
:101DC000CF018D5897408E159F0528F14EE8842E3F
:101DD00047E0942EFE013196D40121E0CF01231774
:101DE00048F54D9141932F5FFACF2B3DA9F6AE2CCC
:101DF0002A2D30E02417350758F0B9016959764F7C
:101E0000DB016C912859364FD9016C93AA94F0CF1D
:101E1000BDEDB183C1CFCC50DF4FA881B981C45F84
:101E2000D0408D91CC50DF4FB983A883C45FD040A0
:101E30008193C2CF63E0640D0E948103F701E357F1
:101E4000F84F808325E0240D30E0F901E357F84F87
:101E500090832257384F80ECF9018083D4018D9113
:101E60004D017394803C19F0BCEE7B12F7CF872DA7
:101E700090E090938C0780938B07E3E05E126EC036
:101E8000E7EBF4E0D5018D915D01819363946710D8
:101E9000F9CF60920E021092330B81E080937908A3
:101EA00010920F0290917908913021F480918A0765
:101EB000882321F08091D410813099F48EE0E0E104
:101EC000F2E0DE01119601900D928A95E1F7809182
:101ED0009C05813009F4B4C108F4E3C0823009F4F0
:101EE00042C280918A07813009F099C280918907A6
:101EF000811195C280910E029EE790938906A0E021
:101F0000B2E02EE032E0E9E8F6E031962A173B072E
:101F100009F063C210939806ADE9B5E0E9E9F6E08F
:101F200090E1E92EF12C90E04096E816F90608F4CD
:101F300057C297012757394F49018AEA57014FEF96
:101F4000A41AB40A9401295836402D3F310508F0EF
:101F50004DC2D4018D934D017501F0CFB5E05B12F8
:101F60009FCF8091360B81119BCF80911F0C8111E7
:101F700097CF66E473E081ED91E10E94790740E13B
:101F800050E0602F81ED91E10E941F076EE473E045
:101F9000043059F1011125C064E573E081ED91E150
:101FA0000E94790784E58093390B86E280933A0B8F
:101FB00080EC80933B0B84E380933C0B87E0809321
:101FC0003D0B81E08093360B25E030E03093380BF9
:101FD0002093370B1092350B80931F0C1092330B0C
:101FE0005FCF063009F56BE573E081ED91E10E946A
:101FF000790784E58093390B86E280933A0B80EC75
:1020000080933B0B84E380933C0B87E080933D0BF4
:1020100081E08093360B25E030E03093380B20933D
:10202000370B0093350BD8CF073051F562E673E0DC
:1020300081ED91E10E94790784E58093390B86E276
:1020400080933A0B80EC80933B0B84E380933C0BB2
:1020500000933D0BFF24F394F092360B85E090E063
:102060009093380B8093370B0093350B40E150E091
:1020700067E081ED91E10E941F07F0921F0CAECF47
:102080006AE673E081ED91E10E9479071092360BC8
:1020900010921F0C1092330B1092790810921E0CA4
:1020A000FFCE913051F580918A07811126C0E7EB70
:1020B000F4E0ADE9B5E081918D9325E0EC39F207CC
:1020C000D1F71092790821E020938A071091B60485
:1020D000110F1E708091B50430E2839FC00111245E
:1020E000182B20939C050E943A026093B1047093D0
:1020F000B2048093B3049093B404F090D41041E000
:10210000F412EFCE69E773E08EE692E10E94790760
:10211000E2ECF1E1DE01119691918D91981709F4AD
:102120007BC01092D410EE24E3946091C11160FD45
:1021300080C070E075956795962F9770F92E68E8C6
:1021400073E08EE692E10E9479074AE050E06F2D3D
:102150008EE692E10E941F0769E973E08EE692E144
:102160000E9479074AE050E06091B5048EE692E162
:102170000E941F078091B504F81255C081E080933A
:10218000B004F12C61EA73E08EE692E10E947907D7
:102190004AE050E06E2D8EE692E10E941F074AE071
:1021A00050E06091B0048EE692E10E941F074AE081
:1021B00050E060911E0C8EE692E10E941F0761EADA
:1021C00073E08EE692E10E947907A1E0EA1609F435
:1021D00088CE8091B004813009F083CE80911E0CAE
:1021E00081117FCE60EB73E081ED91E10E94790770
:1021F000E5EDF0E1A0E1BDE081EC91E121912D93CD
:102200008E179F07D9F7F110ABC081E080931E0CA9
:1022100082E080939C0565CE81E1E03DF80709F0FE
:102220007BCFE12C82CF1092B00482E080939C059A
:10223000A8CF6370613009F0A5CF1092D410A2CF5F
:102240008091D410813009F06DC08091C11180FD62
:102250000EC0E5EDF0E1A0E1BDE081EC91E121915E
:102260002D938E179F07D9F71092D4103ACE982F3E
:1022700093709130C9F7982F9295969597709150D9
:10228000983008F097E02091B60492131AC090E0BD
:1022900095958795959587958370823090F41092E7
:1022A000AF046EEC73E08EE692E10E94790786EB54
:1022B00094E00E940D0710929C0581E080930F022C
:1022C000D3CF8091AF04823079F461EF73E08EE672
:1022D00092E10E9479071092790886EB94E00E94BF
:1022E0000D071092AF04E7CF8F5F8093AF0462E2D7
:1022F00074E08EE692E10E94790763E474E08EE672
:1023000092E10E9479074AE050E06091AF048EE6C6
:1023100092E10E941F0764E473E08EE692E10E945E
:102320007907C9CF0E943A028090B1049090B2041C
:10233000A090B304B090B404681979098A099B0984
:10234000613D77408105910508F4CBCD1092D41002
:102350001092B1041092B2041092B3041092B4041B
:1023600010929C05BECD1092D4101091B5041F5F41
:1023700086EB94E00E940D07E0E21E9FC00111244D
:10238000182F11608091D0118130F9F48091B00440
:102390008130D9F462E574E08EE692E10E9479071B
:1023A00085EB94E00E940D071092B00410920E028B
:1023B000FE013196A0E0B2E081918D93EC15FD0510
:1023C000D9F781E080938A07CBCF60E774E08EE68F
:1023D00092E10E9479071860E9CF9D91908395CD95
:1023E0002D9121933FEFE31AF30A9FCDFA82E98200
:1023F000BE016F5F7F4F89E896E00E940206F401FC
:102400009083F501E757F94F8083F701E557F94FBE
:102410008EE7808310928A0781E0809389078091FC
:102420008907813009F051C080910E1390910F13EC
:1024300020911013309111138217930719F060E067
:102440000E9474018091241390912513823091058C
:1024500038F0880F991F880F991F05970197F1F79A
:1024600080912013882319F081EE0E94A1076091CA
:102470001D136E7F60931D1380E00E94030882E0AD
:102480000E94AB07E0EFF1E0E49161E070E001C091
:10249000660FEA95EAF7682B82E00E940308F9E8E4
:1024A000AF2EF6E0BF2EA9E8EA2EA7E0FA2ED5015E
:1024B0006D915D018EE692E10E94E402EA14FB0454
:1024C000B1F7109289070E94200888E0EEE1F2E05F
:1024D000DE01119601900D928A95E1F78FEF0E942F
:1024E000A1078091161390E09595879587708630A7
:1024F00008F089C08091D310811185C06EE874E026
:102500008EE692E10E9479078CEE80930E02C25112
:10251000DF4F1882CE5ED04063EDA62E6FE0B62E60
:102520007BED872E7FE0972E75018FEF0E94A1072C
:102530008091161390E09595879587708630A8F75F
:10254000CE0182519F4F0E94DD0760E487E00E9428
:102550000308C251DF4F8881CE5ED040F7018193DE
:102560007F018E169F0609F7DE011196E3EDFFE06D
:1025700081E021919D91291380E0EE16FF06C9F7B5
:10258000813099F5C351DF4F1882CD5ED0403BEDCD
:10259000E32E3FE0F32E43ED842E40E1942E8FEFA7
:1025A0000E94A1078091161390E0959587958770FA
:1025B0008630A8F7CE0183519F4F0E94DD0760E46B
:1025C00087E00E940308C351DF4F8881CD5ED04071
:1025D000D7018D937D018A169B0609F781E08093D0
:1025E000D3108EE692E10E943003F50161915F0104
:1025F00040E150E08EE692E10E941F07F3EDAF1636
:10260000F0E1BF0691F78091D410811108C080914C
:10261000D310813021F480910E020E9473060E9433
:102620004F035CC8D7018D937D01AA16BB0609F044
:10263000F7CA21CBA1E21A2EAA1BBB1BFD010DC0BC
:10264000AA1FBB1FEE1FFF1FA217B307E407F50762
:1026500020F0A21BB30BE40BF50B661F771F881F3E
:10266000991F1A9469F760957095809590959B01D4
:10267000AC01BD01CF010895EE0FFF1F881F8BBF76
:102680000790F691E02D1994FB01DC0102C0019046
:0E2690000D9241505040D8F70895F894FFCFB6
:10269E004F4E34554C47604F554654493161EC010D
:1026AE004F4E34554C47604F5546544931617E4F1D
:1026BE004E34554C47603030303031000000000051
:1026CE00E402460273023003A402820296020D0A4D
:1026DE00000A2053656E64696E6720204461746140
:1026EE00200A000A2052656365697665642044619C
:1026FE007461200A000A20526573706F6E64207731
:10270E0069746820616E2041434B200A000A2052F2
:10271E006573706F6E73652077697468204E4143E0
:10272E004B200A000A2053656E64696E672044616F
:10273E00746120416761696E200A000A204E414390
:10274E004B20436F756E7465723D2033200A000A6C
:10275E00616C6F6F6F200A000A20646B68616C20D9
:10276E0068656E61207278200A000A20436F7272CB
:10277E0065637420435243200A000A2057726F6E1D
:10278E006720435243200A000A205265636569762A
:10279E006564206672616D650A00444B48414C20A9
:1027AE00454C2046554E4354494F4E2041534153BC
:1027BE004E20000A20636865636B20677761206591
:1027CE006C2066756E6374696F6E20656C2067642D
:1027DE006564610A0A00656C2074797065000A47A9
:1027EE0045540A000A50494E470A000A52454144D0
:1027FE000A000A57524954450A000A2047574120F9
:10280E00656C20656C73650A000A49646C652072FC
:10281E007820706172740A000A20526563656976C9
:10282E006564204E53203D20000A205652203D2044
:10283E00000A20434845434B20464C4147530A006B
:10284E000A20677761206D616E6167656D656E74D4
:10285E00206C6179657220657A7A61740A000A20AB
:10286E00546865204672616D652077652073656ECC
:10287E007420776173204163636570746564200A08
:10288E00000A2052656A65637420436F756E746525
:10289E00722052656163686564203320736F206611
:1028AE0072616D6520697320736B69707065642049
:1028BE000A000A546865204672616D6520776520AE
:1028CE0073656E74207761732052656A65637465F3
:1028DE00640A000A2072656A436F756E7465723AF7
:1028EE0020000A204163636570742074686520724D
:1028FE0065636569766564206672616D65200A00A0
:10290E000A2052656A656374207468652072656377
:10291E006569766564206672616D65200A000A72CB
:10292E0065636569766564204672616D65206672C1
:08293E006F6D206E72660A0045
:00000001FF
